:020000040800F2
:10000000200C00204D0200089B47000833410008E7
:1000100099470008A7040008ED4E00080000000002
:10002000000000000000000000000000AB470008D6
:10003000B504000800000000A9470008AD4700080B
:1000400067020008670200086702000867020008EC
:1000500067020008670200086702000867020008DC
:1000600067020008670200086702000867020008CC
:1000700067020008670200086702000867020008BC
:1000800067020008670200086702000867020008AC
:10009000670200086702000867020008670200089C
:1000A000670200086702000867020008670200088C
:1000B000670200086702000867020008670200087C
:1000C000670200086702000867020008670200086C
:1000D000670200086702000867020008670200085C
:1000E000670200086702000867020008670200084C
:1000F000670200086702000867020008670200083C
:10010000670200086702000867020008670200082B
:1001100067020008670200085548000867020008E7
:10012000670200086702000867020008670200080B
:1001300067020008670200086702000867020008FB
:1001400067020008670200086702000867020008EB
:1001500067020008670200086702000867020008DB
:1001600067020008670200086702000867020008CB
:10017000670200089D4700086702000800000000B1
:1001800067020008670200086702000867020008AB
:10019000670200086702000867020008670200089B
:1001A0003541000867020008A904000800F002F8C1
:1001B00000F03CF80AA090E8000C82448344AAF1C5
:1001C0000107DA4501D100F031F8AFF2090EBAE8C3
:1001D0000F0013F0010F18BFFB1A43F0010318477B
:1001E000A44D0000C44D0000103A24BF78C878C167
:1001F000FAD8520724BF30C830C144BF04680C602D
:10020000704700000023002400250026103A28BF74
:1002100078C1FBD8520728BF30C148BF0B60704778
:100220001FB504F09DFE1FBD10B510BD00F001F913
:100230001146FFF7F5FF04F06BFE00F01FF903B461
:10024000FFF7F2FF03BC00F027F9000009488047E0
:1002500009480047FEE7FEE7FEE7FEE7FEE7FEE7A8
:10026000FEE7FEE7FEE7FEE704480549054A064BC0
:100270007047000045480008AD0100082006002036
:10028000200C0020200800202008002053EA020C47
:1002900000F069802DE9F04B4FF00006002B1FBFE6
:1002A000B3FA83F503FA05F424FA05F65E4012BFAB
:1002B0001643B2FA82F502FA05F4C5F120051EBF15
:1002C00022FA05FC44EA0C04203556EA044C4FEAB5
:1002D000144418BF641C4FF000084FF0000990420E
:1002E00071EB030C39D3002919BFB1FA81F701FA78
:1002F00007F6B0FA80F700FA07F6C7F120071EBF2D
:1003000020FA07FC46EA0C062037B6FBF4FCA7EB04
:100310000507103F07F01F0BCBF120060CFA0BFB73
:100320002CFA06F644BFB3460026202FA4BF5E4633
:100330004FF0000B5BEA060C08BF4FF0010B19EB06
:100340000B09ABFB027C48EB0608C01B06FB02CC8A
:100350000BFB03CC71EB0C01C1E70B460246414697
:100360004846BDE8F08B13B54FF000004FF0000198
:10037000AFF30080BDE81C40704710B5203AC0F0D4
:100380000B80B1E81850203AA0E81850B1E8185096
:10039000A0E81850BFF4F5AF5FEA027C24BFB1E8D3
:1003A0001850A0E8185044BF18C918C0BDE8104044
:1003B0005FEA827C24BF51F8043B40F8043B08BF4D
:1003C0007047D20728BF31F8023B48BF11F8012B14
:1003D00028BF20F8023B48BF00F8012B70474FF0C0
:1003E000000200B5134694469646203922BFA0E885
:1003F0000C50A0E80C50B1F12001BFF4F7AF090791
:1004000028BFA0E80C5048BF0CC05DF804EB890081
:1004100028BF40F8042B08BF704748BF20F8022BC4
:1004200011F0804F18BF00F8012B704770477047DC
:100430007047754600F02CF8AE46050069465346F5
:1004400020F00700854618B020B5FFF70DFFBDE886
:1004500020404FF000064FF000074FF000084FF02B
:10046000000B21F00701AC46ACE8C009ACE8C009BC
:10047000ACE8C009ACE8C0098D46704710B5044629
:10048000AFF300802046BDE81040FFF7D8BE000063
:1004900000487047C005002001491820ABBEFEE7A8
:1004A000260002007047FEE7014800F09BBA0000FA
:1004B00020000020704772B6FEE7000070B50546C8
:1004C00057480C46854204D040F29F4155A004F0A5
:1004D0001EFD206830B1012804D04FF4946151A072
:1004E00004F015FD606850B1012808D0022806D03C
:1004F000032804D040F2A1414AA004F008FDA068FE
:1005000040B1042806D0082804D040F2A24145A0FA
:1005100004F0FDFCE06840B1102806D0202804D08B
:1005200040F2A3413FA004F0F2FC206930B1402822
:1005300004D040F2A4413BA004F0E9FC60698028AB
:100540000AD0B0F5807F07D0B0F5C07F04D040F26C
:10055000A54134A004F0DBFCA06938B1B0F5007F00
:1005600004D040F2A6412FA004F0D1FCE06950B1C4
:10057000B0F5006F07D0B0F5406F04D040F2A7414E
:1005800028A004F0C4FC206A38B1B0F5805F04D024
:100590004FF4956123A004F0BAFC606A50B1B0F545
:1005A000005F07D0B0F5804F04D040F2A9411DA0F4
:1005B00004F0ADFC2068D8B1D4E907010843616AB2
:1005C0002A6822F4F842114308432860D4E9010163
:1005D0000843D4E903121143084361690843A16940
:1005E000084369686FF30E0108436860002070BD1E
:1005F000D4E901010843D4E90312114308436169B6
:100600000843A1690843E1690843216A0843616A14
:10061000084329686FF30E0108432860E6E70000ED
:10062000400100A02E2E2F447269766572732F53FD
:10063000544D3332463478785F48414C5F44726998
:100640007665722F5372632F73746D33326634780C
:10065000785F6C6C5F666D632E6300002DE9F05F60
:100660000546514817460C46854204D040F2DE410B
:100670004EA004F04CFC2068401E0F2804D940F224
:10068000DF414AA004F043FC6068401E0F2804D9F3
:100690004FF49C6145A004F03AFCA068401E0F286E
:1006A00004D940F2E14141A004F031FCE068401E71
:1006B0000F2804D940F2E2413CA004F028FC206954
:1006C000401E0F2804D940F2E34138A004F01FFC7B
:1006D0006069401E0F2804D940F2E44133A004F0C1
:1006E00016FCA069401E0F2804D940F2E5412FA056
:1006F00004F00DFC6FF00F066FF0FF084FEA063AAA
:100700004FEA06494FF07F4B6FB3012F04D040F200
:10071000E64126A004F0FBFBE068A28A000309EB97
:100720000251A0F580500843A9682E4A11400843A1
:10073000A860D4E9000106EB0111401EA26808433D
:1007400008EB0221228A08430AEB0241227E084379
:100750000BEB02610843E96801F070410843E8606F
:100760000020BDE8F09FD4E9000106EB0111401E16
:10077000A268084308EB022108431B4AE16802EB28
:100780000131228A08430AEB0241A28A084309EB9D
:100790000251227E08430BEB02610843A96801F075
:1007A00070410843A860DBE7400100A02E2E2F44D3
:1007B0007269766572732F53544D333246347878AC
:1007C0005F48414C5F4472697665722F5372632FA4
:1007D00073746D3332663478785F6C6C5F666D630A
:1007E0002E630000FF0F0FFF00F0FFFF10B50400A5
:1007F0000AD00B492068884203D0682109A004F080
:1008000086FB607910B106E0012010BD0020207148
:10081000204600F023F801206071002010BD000088
:10082000003002402E2E2F447269766572732F536A
:10083000544D3332463478785F48414C5F44726996
:100840007665722F5372632F73746D33326634780A
:10085000785F68616C5F6372632E630008B500683F
:100860000649884208D10648016841F48051016078
:10087000006800F48050009008BD00000030024085
:10088000303802407047000070B50E00054606D0B3
:10089000012E04D04FF4D96142A004F038FB05EBDF
:1008A0000614A069B0F5804F04D340F2C9613DA0A1
:1008B00004F02DFB6868B0F5403F27D0E069C0B177
:1008C000012816D0022814D0032812D0042810D0F2
:1008D00005280ED006280CD007280AD0082808D0F2
:1008E000092806D00A2804D040F2CC612DA004F0DB
:1008F0000EFB686850B1206A40B1012806D002287A
:1009000004D040F2CF6127A004F001FB95F8380035
:10091000012822D0012385F83830022085F83900DB
:10092000218CE069183440EA01422D490A2816D08A
:10093000092814D0207B42EA0060002E2E6813D0D4
:10094000F2698A430243F26129682068086160689D
:100950000A281BD0092819D01DE0022070BDE068CC
:1009600000F07F401043E8E7726A8A4302437262F4
:1009700029682068886160680A2801D009280AD19E
:10098000E068296820F07F40886204E0E068296818
:1009900020F07F40086285F83930002085F8380063
:1009A00070BD00002E2E2F447269766572732F532E
:1009B000544D3332463478785F48414C5F44726915
:1009C0007665722F5372632F73746D333266347889
:1009D000785F68616C5F646D6132642E6300000053
:1009E0000F0003FF2DE9F0470446006846680568DC
:1009F000F1074FF004084FF000074FF0010914D041
:100A0000E90512D5016821F480710160E06B40F0C6
:100A10000100E0632168C1F8089084F8398084F807
:100A20003870616909B120468847B00615D5A80419
:100A300013D52068016821F400510160216820204D
:100A40008860E06B40F00200E06384F8398084F84D
:100A50003870616909B120468847300715D52805E7
:100A600013D52068016821F4006101602168082025
:100A70008860E06B40F00400E06384F8398084F81B
:100A80003870616909B12046884770070CD5680540
:100A90000AD52068016821F4806101602168C1F8ED
:100AA0000880204600F0A8F8B00713D5A80511D596
:100AB0002068016821F400710160216802208860CB
:100AC000E06BE06384F8399084F83870216909B1EB
:100AD00020468847F00612D5E80410D52068016842
:100AE00021F480510160216810208860E06BE06390
:100AF00084F8399084F838702046FFF7C3FEBDE8CB
:100B0000F087000070B5040031D02B49206888427E
:100B100003D0F72129A004F0FAF9606860B1B0F5BC
:100B2000803F09D0B0F5003F06D0B0F5403F03D07C
:100B3000F82122A004F0EBF9A06858B1012809D0EF
:100B4000022807D0032805D0042803D0F9211BA0D0
:100B500004F0DDF9E068B0F5804F03D3FA2117A067
:100B600004F0D5F994F83900002510B106E0012011
:100B700070BD84F83850204600F040F8022084F818
:100B8000390020680168626821F440311143016036
:100B90002068416BA26821F007011143416320687E
:100BA000016CE2686FF30D0111430164E5630120FC
:100BB00084F83900002070BD00B002402E2E2F4472
:100BC0007269766572732F53544D33324634787898
:100BD0005F48414C5F4472697665722F5372632F90
:100BE00073746D3332663478785F68616C5F646DFE
:100BF0006132642E630000007047000008B5006891
:100C00000B49884212D10B48016841F40001016090
:100C10000068002200F40000009005215A2001F035
:100C2000BDF9BDE808405A2001F086B908BD0000B2
:100C300000B002403038024070B5044600F076FA49
:100C40000546601C02D004480078044400F06EFAA7
:100C5000401BA042FAD370BD100000202DE9F041E6
:100C600086B014216846FFF7BAFB2B4801680029BB
:100C70004FD14FF00108C0F80080284800240168D7
:100C800041F0010101600068022500F001000590BB
:100C90004FF63F00CDE9000502AA03260C2782E8A3
:100CA000D00069461E4800F047F802AA694682E86B
:100CB000D000CDE900851B4800F03EF848F2331023
:100CC000CDE9000502AA694682E8D000164800F086
:100CD00033F84FF68370CDE9000502AA694682E831
:100CE000D000124800F028F84CF20370CDE900055E
:100CF00002AA694682E8D0000D4800F01DF8602085
:100D0000CDE9000502AA694682E8D000094800F052
:100D100013F806B0BDE8F081080000203838024022
:100D20000014024000080240001802400010024077
:100D3000000C0240000402402DE9F84FDFF8ACB28D
:100D40000D460446584521D0A94884421ED0A948E2
:100D500084421BD0A848844218D0A848844215D0A9
:100D6000A748844212D0A74884420FD0A6488442A4
:100D70000CD0A648844209D0A548844206D0A54894
:100D8000844203D0AC21A4A004F0C1F82868010477
:100D9000090C01D0000C03D0AD219FA004F0B7F8DE
:100DA0006868F8B101281DD011281BD0022819D07D
:100DB000122817D0B0F5881F14D0B0F5041F11D039
:100DC000B0F5441F0ED0B0F5901F0BD0B0F5081F42
:100DD00008D0B0F5481F05D0032803D0AE218EA05F
:100DE00004F095F800264FF0010A4FF0030900BF08
:100DF0000AFA06F02F688046074047457ED12879D9
:100E000000F00300012801D002281DD1E86848B194
:100E1000012807D0022805D0032803D0C0217EA0D6
:100E200004F075F8A068720009FA02F18843E968D5
:100E300091400143A1606068297920EA0800C1F36C
:100E40000011B140014361602879C043800712D08E
:100E5000A86838B1012805D0022803D0D1216EA09E
:100E600004F055F8E168720009FA02F08143A868BD
:100E700090400843E060287900F00300022830D158
:100E8000286908B309281FD001281DD002281BD0CB
:100E9000032819D0042817D0052815D0062813D008
:100EA000072811D008280FD00A280DD00B280BD006
:100EB0000C2809D00D2807D00F2805D00E2803D004
:100EC000DE2155A004F023F8F00804EB8002106A3C
:100ED0007107CB0E0F21994088432969994001433E
:100EE00011622068720009FA02F18843297901F041
:100EF0000301914001432160686800E06FE010F455
:100F0000403F6CD05348016841F480410160006863
:100F100026F0030100F4804000904F480A18D2F8F0
:100F20000808B1070B0F0F21994088435C4501D198
:100F300000212DE02E498C4201D1012128E02D49CC
:100F40008C4201D1022123E02B498C4201D10321A3
:100F50001EE02A498C4201D1042119E028498C4223
:100F600001D1052114E027498C4201D106210FE06F
:100F700025498C4201D107210AE024498C4201D144
:100F8000082105E022498C4201D1092100E00A2113
:100F900099400143C2F80818304908686A68B843A4
:100FA000D20200D5384308602C49091D08686A68D8
:100FB000B843920200D5384308602849091F0868E1
:100FC0006A68B843920300D538430860234908395A
:100FD00008686A68B843D20300D538430860761CB5
:100FE000102EFFF405AFBDE8F88F000000000240AE
:100FF0000004024000080240000C024000100240C1
:101000000014024000180240001C02400020024070
:1010100000240240002802402E2E2F44726976657B
:1010200072732F53544D3332463478785F48414CB5
:101030005F4472697665722F5372632F73746D33D8
:1010400032663478785F68616C5F6770696F2E63B1
:10105000000000004438024000300140083C0140DC
:1010600070B50C00054604D14FF4DB7105A003F008
:101070004EFF696924EA0100214040EA0140A8616D
:1010800070BD00002E2E2F447269766572732F5347
:10109000544D3332463478785F48414C5F4472692E
:1010A0007665722F5372632F73746D3332663478A2
:1010B000785F68616C5F6770696F2E630000000085
:1010C00070B515460C00064604D140F29D1108A0EB
:1010D00003F01DFF45B1012D04D04FF4CF7104A0E2
:1010E00003F015FFB46170BD2004B06170BD000055
:1010F0002E2E2F447269766572732F53544D3332FE
:10110000463478785F48414C5F4472697665722F47
:101110005372632F73746D3332663478785F68610D
:101120006C5F6770696F2E63000000000148806883
:1011300070470000100000207047704770472DE98D
:10114000F04106680446304603F092FD012875D14F
:10115000206803F07AFE002870D0206803F075FE46
:10116000800203D521684FF400104861206803F025
:101170006CFEC00203D521684FF4801048612068DE
:1011800003F063FE400103D521684FF080604861A1
:10119000206803F05AFE800702D5216802204861CA
:1011A000206803F052FE800015D521684FF00050F2
:1011B0004861D6F84004C0070DD11021304603F035
:1011C00037FD304603F016FD0121206803F022FEB2
:1011D0002046FFF7B2FF206803F037FEC00102D5BA
:1011E000204602F016FF206803F02FFE000705D509
:1011F000204600F0E9F8216808204861206803F0E3
:1012000024FEC043C0060CD42068816921F010017F
:101210008161204602F047FF2068816941F010019A
:101220008161206803F011FE800123D5206803F05E
:1012300085FD074600254FF0010814E01AE005F08F
:101240000F0108FA01F038420CD006EB4510D0F837
:101250000005E9B20004204602D502F0D7FC01E007
:1012600002F0C9FD6D1CA068A842E8D821684FF0C3
:1012700000704861BDE8F08170B58AB0040010D0FC
:101280002068B0F1A04F06D01D49884203D07921D3
:101290001CA003F03CFE94F8F9022568002618B162
:1012A00007E001200AB070BD84F8F862204600F023
:1012B00045F8032084F8F902E86BC00500D42661E4
:1012C000206803F091FC04F1100128220D466846C5
:1012D000FFF753F894E80F0003F02CFC012120687D
:1012E00003F0D6FD282229466846FFF746F894E821
:1012F0000F0003F027FD012084F8F9020020D1E758
:10130000000004402E2E2F447269766572732F53AD
:10131000544D3332463478785F48414C5F447269AB
:101320007665722F5372632F73746D33326634781F
:10133000785F68616C5F6863642E630070B586B027
:10134000044614216846FFF74AF81B492068884282
:1013500030D11A4C0025206840F00200206020683F
:10136000174E00F0020005904FF45040009002200C
:10137000CDE901050C20CDE9035069463046FFF761
:10138000DBFC4FF40050CDE900056946304602957C
:10139000FFF7D2FC206840F0005020602068002257
:1013A00000F00050059011464D2000F0F7FD4D2053
:1013B00000F0C2FD06B070BD0000044030380240AD
:1013C00000040240704770477047000070B50D463A
:1013D000044600681A49884209D01A49884206D052
:1013E0001949884203D05B2118A003F090FD2DB16C
:1013F000102D03D05C2115A003F089FD94F83D0069
:10140000202801D0022070BD242084F83D002068EF
:10141000016821F0010101602068416A21F010019A
:1014200041622068416A294341622068016841F0B5
:1014300001010160202084F83D00002070BD000003
:101440000054004000580040005C00402E2E2F4405
:101450007269766572732F53544D333246347878FF
:101460005F48414C5F4472697665722F5372632FF7
:1014700073746D3332663478785F68616C5F69329B
:10148000635F65782E63000070B50D460446006802
:101490001849884209D01849884206D0174988421D
:1014A00003D0832116A003F032FD0F2D03D9842130
:1014B00013A003F02CFD94F83D00202801D0022059
:1014C00070BD242084F83D002068016821F00101EE
:1014D00001602168486A20F00F00284380B248620A
:1014E0002068016841F001010160202084F83D007E
:1014F000002070BD0054004000580040005C0040D7
:101500002E2E2F447269766572732F53544D3332E9
:10151000463478785F48414C5F4472697665722F33
:101520005372632F73746D3332663478785F6861F9
:101530006C5F6932635F65782E63000070B50400EC
:101540007DD08A49206888420AD08949884207D0DC
:101550008849884204D04FF4DF7187A003F0D7FC9C
:1015600060689349401E884204D940F2BF1182A0AE
:1015700003F0CDFCA0684FF4804530B1A84204D000
:101580004FF4E0717CA003F0C2FCE068800A04D054
:1015900040F2C11178A003F0BAFC2069A84207D03C
:1015A000B0F5404F04D04FF4E17173A003F0AFFCED
:1015B000606930B1012804D040F2C3116EA003F07D
:1015C000A6FCA06930F0FE0004D04FF4E2716AA0DE
:1015D00003F09DFCE06930B1402804D040F2C51111
:1015E00065A003F094FC206A30B1802804D04FF449
:1015F000E37161A003F08BFC94F83D00002520B955
:1016000084F83C50204600F0DDF8242084F83D00AA
:101610002068016821F0010101602068016841F43F
:10162000004101602068016821F40041016001F07F
:10163000FFF8604A6168914202D85F4901E002E028
:101640005E49884201D2012070BD5D492368B0FB2C
:10165000F1F15E6826F03F060E435E6063689342D8
:1016600006D94FF4967359434FF47A73B1FBF3F1F3
:101670002368491C1E6A26F03F06314319626168DF
:10168000914210D84900401EB0FBF1F2521CC2F347
:101690000B02042A01D2042022E0B0FBF1F0401C2E
:1016A000C0F30B001CE0A368F3B301EBC10202EB33
:1016B0000116421EB2FBF6F2521C42F480421205A1
:1016C00049D093B301EBC10202EB0111401EB0FB04
:1016D000F1F0401CC0F30B0040F4804040F40040A7
:1016E0002168CA694CF6FF739A431043C861D4E974
:1016F000071001432068026822F0C0021143016014
:10170000D4E9030101432068826848F2FF339A4319
:1017100011438160D4E9050108432168CA6822F0B9
:10172000FF021043C86001E00EE016E02068016887
:1017300041F0010101602564202084F83D0025630B
:1017400084F83E50002070BD01EB4106421EB2FB02
:10175000F6F2521CB3E70120C2E701EB4101401E43
:10176000B0FBF1F0401CC0F30B00B7E700540040A1
:1017700000580040005C00402E2E2F4472697665B0
:1017800072732F53544D3332463478785F48414C4E
:101790005F4472697665722F5372632F73746D3371
:1017A00032663478785F68616C5F6932632E6300FB
:1017B0007F1A0600A086010080841E0000093D00FB
:1017C00040420F00F0B587B0044614216846FEF78A
:1017D00006FE1C492068884231D11B48002401685C
:1017E00041F004010160016801F004010591016804
:1017F00041F0010101600068122500F00100059030
:101800004FF4007001268DE861000427CDE90347FD
:1018100069460E48FFF790FA30028DE86100CDE985
:10182000034769460A48FFF787FA074810300168FE
:1018300041F400010160006800F40000059007B069
:10184000F0BD0000005C004030380240000802405B
:1018500000000240024881680278114481607047AC
:10186000100000200B4810B5016841F400710160C0
:10187000016841F480610160016841F48071016098
:10188000032000F0DBFB0F2000F006F800F03CFB2B
:10189000002010BD003C024010B5014688B0002277
:1018A000362000F07BFB362000F046FB1348002476
:1018B000016841F010010160006805A900F0100006
:1018C0000690684600F094FF00F0B2FF0C4940001B
:1018D000B0FBF1F10C480B4A491E026040F2E732BE
:1018E000C0E90324C0E9011401F07CFC10B101201F
:1018F00008B010BD044801F041FDF9E7403802404E
:1019000040420F0000100040780500202DE9F04112
:1019100016460C460546022A04D34FF44F714CA0DC
:1019200003F0F5FA20684FF48057B84204D340F230
:101930003D3147A003F0EBFA60684FF48038404532
:1019400004D340F23E3142A003F0E1FAA068B8426D
:1019500004D340F23F313EA003F0D9FAE06840459D
:1019600004D34FF450713AA003F0D1FA206990B13A
:10197000012810D002280ED003280CD004280AD049
:10198000052808D0062806D0072804D040F24131A7
:101990002FA003F0BCFA6069FF2804D940F242315D
:1019A0002BA003F0B4FAA069FF2804D940F2433118
:1019B00027A003F0ACFAE069B0F5806F07D0B0F56E
:1019C000C06F04D04FF4517121A003F0A0FA206A37
:1019D000052806D0072804D040F245311CA003F0AA
:1019E00096FAA06AB0F5005F04D340F2463118A021
:1019F00003F08DFAE06AB0F5006F04D340F247318E
:101A000013A003F084FA95F8A00001281ED0012746
:101A100085F8A070022085F8A10006EB860000EB97
:101A2000C60005EB8000342221463830FEF7A5FCC5
:101A300032462146284602F083FB2868476285F833
:101A4000A170002085F8A000BDE8F0810220FBE72E
:101A50002E2E2F447269766572732F53544D333294
:101A6000463478785F48414C5F4472697665722FDE
:101A70005372632F73746D3332663478785F6861A4
:101A80006C5F6C7464632E630000000070472DE986
:101A9000F04104460068856B466B69074FF0040807
:101AA0004FF0000715D5710713D5416B21F00401E4
:101AB00041632168C1F83C80D4F8A41041F00101D1
:101AC000C4F8A41084F8A18084F8A0702046FFF721
:101AD000DDFFA80716D5B00714D52068416B21F0AB
:101AE0000201416321680220C863D4F8A40040F0D9
:101AF0000200C4F8A40084F8A18084F8A0702046F5
:101B0000FFF7C4FF05EA0600C0074FF001080ED03A
:101B10002068416B21F0010141632168C1F83C80DC
:101B200084F8A18084F8A070204600F017F92807F7
:101B300010D530070ED52068416B21F008014163B4
:101B400021680820C86384F8A18084F8A07020462A
:101B500000F0D8F9BDE8F08170B504006CD06E4992
:101B60002068884203D0E1216CA003F0D0F96069BD
:101B70004FF48055A84203D3E22168A003F0C7F9CF
:101B8000A0694FF40066B04203D3E32163A003F0E1
:101B9000BEF9E069A84203D3E42160A003F0B7F9DD
:101BA000206AB04203D3E5215CA003F0B0F9A06A3B
:101BB000B04203D3E62159A003F0A9F9606AA84214
:101BC00003D3E72155A003F0A2F9206BB04203D361
:101BD000E82152A003F09BF9E06AA84203D3E9216F
:101BE0004EA003F094F9606830B1B0F1004F03D01B
:101BF000EA214AA003F08BF9A06830B1B0F1804F20
:101C000003D0EB2145A003F082F9E06830B1B0F1D8
:101C1000005F03D0EC2141A003F079F9206930B1D5
:101C2000B0F1805F03D0ED213CA003F070F994F88F
:101C3000A100002510B106E0012070BD84F8A0507D
:101C4000204600F08DF8022084F8A1002068816908
:101C500021F070418161D4E901010843D4E9031204
:101C60001143084321688A691043886121688A68A2
:101C7000394802408A60A18A0B0421688A68A669F3
:101C800032431A438A602168CA680240CA60A18B45
:101C90000B042168CA68266A32431A43CA60216865
:101CA0000A6902400A61A18C0B0421680A69A66ACC
:101CB00032431A430A6121684A6902404A61A08D91
:101CC000216802044869236B18431043486194F863
:101CD00035002168020294F83600CB6A03F07F4396
:101CE000CB622168CB6A94F8346042EA0040334307
:101CF0000343CB622068416B41F0060141632068D9
:101D0000816941F001018161C4F8A450012084F887
:101D1000A100002070BD0000006801402E2E2F445D
:101D20007269766572732F53544D33324634787826
:101D30005F48414C5F4472697665722F5372632F1E
:101D400073746D3332663478785F68616C5F6C747D
:101D500064632E630000000000F800F0704700008C
:101D60002DE9F04192B0044614216846FEF737FB96
:101D7000302105A8FEF733FB5A49206888427DD1FF
:101D800008200590002432200E94022509900B951E
:101D900005A800F093F908B1FEF78DFB52480168E1
:101DA00041F080610160006800F0806011904E4851
:101DB0001438016841F020010160016801F0200140
:101DC0001191016841F001010160016801F0010118
:101DD0001191016841F002010160016801F0020106
:101DE0001191016841F040010160016801F040017A
:101DF0001191016841F004010160016801F00401E2
:101E00001191016841F00801016000680E2600F0A0
:101E1000080011904FF480600090CDE90154CDE9A5
:101E2000034669463148FEF787FF41F658000090A7
:101E3000CDE90154CDE9034669462D48FEF77CFF04
:101E400003200090CDE901540927DFF8A880CDE9EF
:101E5000034769464046FEF76FFF4FF470600090FD
:101E6000CDE90154CDE9034669464046FEF764FFDB
:101E70004FF40C600090CDE9015400E02FE0DFF852
:101E80007880CDE9034669464046FEF755FF4FF49A
:101E900098600090CDE90154CDE9034669461748A2
:101EA000FEF74AFF48200090CDE90154CDE90346F2
:101EB00069461348FEF740FF4FF4A0500090CDE96B
:101EC0000154CDE9034769464046FEF735FF00223D
:101ED0000521582000F062F8582000F02DF812B0CB
:101EE000BDE8F0810068014044380240001402401F
:101EF00000000240000402400018024000080240B6
:101F0000000C0240704700000A4808B5016841F41F
:101F100080410160006800F4804000900548001F87
:101F2000016841F080510160006800F0805000902D
:101F300008BD00004438024010B5040003D5BC21A0
:101F400007A002F0E4FF002C09DB04F01F010120D0
:101F500088406109890001F1E021C1F8000110BD4C
:101F60002E2E2F447269766572732F53544D33327F
:101F7000463478785F48414C5F4472697665722FC9
:101F80005372632F73746D3332663478785F68618F
:101F90006C5F636F727465782E63000070B51546D0
:101FA0000C460646102A03D3A82114A002F0AFFF66
:101FB000102C03D3A92111A002F0A9FF1E4800682C
:101FC000C0F30223C3F107022046042A00D90422E9
:101FD000191D072901D2002300E0DB1E012404FAA9
:101FE00002F1491E014099409C40641E2C4021434F
:101FF0003046BDE8704002F07ABF00002E2E2F441C
:102000007269766572732F53544D33324634787843
:102010005F48414C5F4472697665722F5372632F3B
:1020200073746D3332663478785F68616C5F636FA8
:10203000727465782E6300000CED00E010B5044664
:1020400007280BD0062C09D0052C07D0042C05D06E
:10205000032C03D0902108A002F059FF154904F089
:10206000070208684FF6FF03184040EA0220124AB0
:102070001043086010BD00002E2E2F447269766553
:1020800072732F53544D3332463478785F48414C45
:102090005F4472697665722F5372632F73746D3368
:1020A00032663478785F68616C5F636F72746578EC
:1020B0002E6300000CED00E00000FA052DE9F84F5A
:1020C00004460068401E7E2804D940F67901F2A03B
:1020D00002F01DFF2068DFF8FCA3FF4EFF4DC10793
:1020E0004FF4BF7B4FF001094FF0000803D1810787
:1020F00001D440067ED560683238584504D940F690
:102100008401E5A002F003FFCAF86880FFF70EF82B
:10211000074604E0FFF70AF8C01B02287ED82868AB
:102120000001F7D42078EE4FC0070ED0A068801EC3
:10213000052804D940F69A01D7A002F0E8FE6068AD
:10214000217A800140EA017038602078800723D529
:10215000E068801E0D2804D940F6A701CEA002F049
:10216000D6FEE069401E1F2804D940F6A801CAA087
:1021700002F0CDFE38686168227B8901C0F30270ED
:1021800041EA026141EA007038603068E16920F09C
:102190001F00491E08433060207840061AD5E068C9
:1021A000801E0D2804D940F6B901BBA002F0AFFE95
:1021B000A068801E052804D940F6BA01B6A002F036
:1021C000A6FE6068217B800140EA0160217A40EA36
:1021D00001703860CAF86890FEF7A8FF074606E06D
:1021E00008E000BFFEF7A2FFC01B022896D82868AF
:1021F0000001F7D52068410701D4000777D5206991
:102200003238584504D940F6D801A3A002F07FFE29
:10221000CAF87080FEF78AFF074606E0EBE000BFD1
:10222000FEF784FFC01B0228E0D82868C043800066
:10223000F6D52078AB4F400726D56069801E0D2863
:1022400004D940F6ED0194A002F061FE206A401E20
:102250001F2804D940F6EE018FA002F058FE38681E
:102260002169227D8901C0F3027041EA026141EADD
:10227000007038603068216A6FF0FF0220F4F85077
:1022800002EB0121084330602078000729D5A069BE
:10229000801E052804D940F6FD017FA002F037FE1C
:1022A000606A68B1B0F5803F0AD0B0F5003F07D052
:1022B000B0F5403F04D040F6FE0177A002F027FEC3
:1022C00038682169C0F30360890141EA0060217E1A
:1022D00040EA017038603068616A20F44030084399
:1022E0003060CAF87090FEF721FF064605E008E06E
:1022F000FEF71CFF801B02287DD82868C0438000A1
:10230000F6D42078800677D5A06AB0F5807F61D0BA
:10231000B0F5007F5ED0744988425BD07349884233
:1023200058D07349884255D07249884252D0724978
:1023300088424FD0714988424CD07149884249D077
:102340007049884246D07049884243D06F498842DC
:1023500040D06F4988423DD06E4988423AD06E499C
:10236000884237D06D49884234D06D49884231D097
:102370006C4988422ED06C4988422BD06B498842E8
:1023800028D06B49884225D06A49884222D06A49C0
:1023900088421FD0694988421CD06949884219D0B7
:1023A0006849884216D06849884213D067498842F4
:1023B00010D0674988420DD0664988420AD06649E4
:1023C000884207D06549884204D040F61D1132A0EA
:1023D00002F09DFD414846464030016841F0805181
:1023E000016000685E4D00F080500090286840F465
:1023F0008070286001E02EE044E0FEF797FE07467B
:1024000005E000BFFEF792FEC01B022823D8286813
:10241000C005F7D5324D143D286810F4407020D027
:10242000218D01F4407181421BD028684D4920F470
:102430004070C1F800900E6028602868C00710D076
:10244000FEF774FE064641F2883707E0FEF76EFE9F
:10245000801BB84202D90320BDE8F88F28688007A6
:10246000F4D5A16A1D48C1F301220830032A7ED0A9
:10247000016821F4F81101602868218DC1F30B0176
:10248000084328602078C00604D5374994F82C000A
:10249000C1F8E0010020DFE72E2E2F447269766537
:1024A00072732F53544D3332463478785F48414C21
:1024B0005F4472697665722F5372632F73746D3344
:1024C00032663478785F68616C5F7263635F6578E9
:1024D0002E630000000047428C3802400038024062
:1024E00084380240883802400003020000030300E1
:1024F00000030400000305000003060000030700BA
:10250000000308000003090000030A0000030B0099
:1025100000030C0000030D0000030E0000030F0079
:102520000003100000031100000312000003130059
:102530000003140000031500000316000003170039
:10254000000318000003190000031A0000031B0019
:1025500000031C0000031D0000031E0000031F00F9
:1025600000700040400E474200104742FFE70268FB
:10257000034B22F4F81219400A4302607CE7000082
:10258000FFFCFF0F2DE9F0470C4605007ED02868C0
:10259000401E0E2804D940F25A2182A002F0B7FC56
:1025A00014B3012C20D0022C1ED0032C1CD0042CE0
:1025B0001AD0052C18D0062C16D0072C14D0082CB5
:1025C00012D0092C10D00A2C0ED00B2C0CD00C2CB5
:1025D0000AD00D2C08D00E2C06D00F2C04D040F2BF
:1025E0005B2170A002F093FCDFF8F081D8F80000C6
:1025F000E7B200F00F00A04207D288F80070D8F8C8
:10260000000000F00F00A04240D12868744E8107FE
:1026100029D5400703D5306840F4E0503060287871
:10262000000703D5306840F460403060A868A0B16E
:10263000802812D0902810D0A0280ED0B0280CD01E
:10264000C0280AD0D02808D0E02806D0F02804D02E
:1026500040F27E2153A002F05AFC3068A96820F0B5
:10266000F000084330602878C00743D0DFF870914D
:102670006868A9F1080998B1012822D0022824D05D
:10268000032822D040F2852146A000E03FE002F07E
:102690003EFC6868012814D0022816D0032814D004
:1026A000D9F800008007002831DA3068696820F026
:1026B000030008433060FEF739FD814641F2883A55
:1026C00011E0D9F800008003EDE7D9F8000080019F
:1026D000E9E700BFFEF72AFDA0EB0901514502D949
:1026E0000320BDE8F0873068696800F00C00B0EBAB
:1026F000810FEFD1D8F80010404601F00F01A14240
:1027000007D90770006800F00F00A04201D0012037
:10271000E7E728784FF4805440074FF4A0574FF470
:10272000C0584FF4E05914D5E86860B1A0420AD00F
:10273000B84208D0404506D0484504D040F2C321F5
:1027400018A002F0E4FB3068E96820F4E050084388
:1027500030602878000715D5286960B1A0420AD0FA
:10276000B84208D0404506D0484504D040F2CA21BE
:102770000CA002F0CCFB3068296920F4604040EAEC
:10278000C100306000F074F83168164AC1F30311DB
:10279000515CC8401449086014480068FFF77CF891
:1027A00000209EE72E2E2F447269766572732F5398
:1027B000544D3332463478785F48414C5F447269F7
:1027C0007665722F5372632F73746D33326634786B
:1027D000785F68616C5F7263632E6300003C024047
:1027E000083802406A4F00081C0000201400002036
:1027F0000F2202600C4A136803F00303436013685E
:1028000003F0F0038360136803F4E053C3601268BD
:102810004FF4E05303EAD20202610448006800F07A
:102820000F0008607047000008380240003C02407A
:102830000448054900680968044AC1F38221515CD3
:10284000C84070471C000020083802407A4F00083A
:102850000448054900680968044AC1F34231515CE3
:10286000C84070471C000020083802407A4F00081A
:10287000154810B5006810F00C02144813D0411030
:10288000042A0FD0082A0ED10F4C241F2268236877
:1028900002F03F025B0207D52068C0F38810A0FB5E
:1028A000010106E0084610BD2168C1F38811A1FBB3
:1028B00000010023FDF7EAFC2168C1F30141491C36
:1028C0004900B0FBF1F010BD083802400024F400CC
:1028D0002DE9F84F04007DD020680F2803D9E621A8
:1028E000F7A002F014FB2078DFF80C94C007A9F1E0
:1028F000040555D060684FF480364FF4A02738B1F6
:10290000B04205D0B84203D0EB21EDA002F0FFFAAF
:10291000F948001D0168C1F38101012908D0006850
:10292000C0F3810002280AD1D9F80000400206D580
:102930002868800334D560680028CCD030E0606817
:10294000B04203D1286840F480300CE0B8422868D7
:1029500003D140F480202860F4E720F48030286020
:10296000286820F480202860606860B1FEF7DEFBF4
:10297000064604E0FEF7DAFB801B64287ED8286850
:102980008003F7D50CE0FEF7D1FB064605E000BF5B
:10299000FEF7CCFB801B6428F0D828688003F7D4AE
:1029A0002078DFF8588380074FF0000A56D5E0689A
:1029B00030B1012804D040F21D11C1A002F0A7FAE5
:1029C00020691F2804D94FF48F71BDA002F09FFA2F
:1029D000C94800E092E0001D016811F00C0F08D01A
:1029E0000068C0F38100022810D1D9F8000040022D
:1029F0000CD42868800702D5E06801287ED12868B9
:102A0000216920F0F80040EAC10017E0E068B8B1A1
:102A10000120C8F80000FEF789FB064605E000BF6C
:102A2000FEF784FB801B0228A8D828688007F7D50A
:102A3000286820F0F801206941EAC00028600DE014
:102A4000C8F800A0FEF772FB064604E0FEF76EFB36
:102A5000801B022892D828688007F7D420780007C6
:102A60002ED5A54EA64F60697036D0B1012808D08A
:102A70004FF4AF7192A002F04AFA00E04BE16069B6
:102A800078B101203860FEF751FB074605E000BF32
:102A9000FEF74CFBC01B0228C6D830688007F7D56C
:102AA0000EE0C7F800A0FEF741FB074605E000BFB7
:102AB000FEF73CFBC01B0228B6D830688007F7D46D
:102AC0002078400776D5A068002740B1012806D0BD
:102AD000052804D04FF4C57179A002F018FADFF888
:102AE00018B20BF13C0BDBF80000C0000DD4DBF892
:102AF000001041F08051CBF8001000E038E1DBF825
:102B00000000012700F0805000907E4E3068C00524
:102B100011D4306840F480703060FEF707FB0090FD
:102B200006E000BFFEF702FB0099401A022891D888
:102B30003068C005F6D5704EA0686C3601280FD0FD
:102B40000528306810D020F001003060306820F097
:102B500004003060A068B8B1FEF7E8FA00900FE01A
:102B6000306840F00100F4E740F004003060F7E71F
:102B7000FEF7DCFA0099411A41F2883081428BD885
:102B800030688007F4D50EE0FEF7D0FA009007E039
:102B9000FEF7CCFA0099411A41F2883081428BD875
:102BA00030688007F4D42FB1DBF8001021F0805199
:102BB000CBF80010A069002876D0012809D002289F
:102BC00007D040F2CD113EA002F0A1F9A069002883
:102BD000F2D04948001D0068C0F381000228A069B6
:102BE0006DD0022805D0C8F860A0FEF79FFA044611
:102BF00094E0E06938B1B0F5800F04D04FF4EB7188
:102C00002FA002F084F9206A3F2804D940F2D7119E
:102C10002BA002F07CF9606A3238B0F5BF7F04D98E
:102C20004FF4EC7126A002F072F9A06A02280AD0D3
:102C3000042808D0062806D0082804D040F2D9116C
:102C40001FA002F064F9E06A801E0D2804D94FF439
:102C5000ED711BA002F05BF94746C8F860A0FEF7D3
:102C600065FA064605E000BFFEF760FA801B022801
:102C700051D828688001F7D4D4E907010843A16A34
:102C8000214A490802EB0141626A41EA8211084384
:102C900094F82C1040EA0161C9F800100120386650
:102CA000FEF744FA044606E064E000BFFEF73EFA91
:102CB000001B02282FD828688001F7D55AE031E0A0
:102CC0002E2E2F447269766572732F53544D333212
:102CD000463478785F48414C5F4472697665722F5C
:102CE0005372632F73746D3332663478785F686122
:102CF0006C5F7263632E6300043802400000474239
:102D0000800E4742007000400000FFFFFEF70EFA01
:102D1000001B022802D90320BDE8F88F2868800133
:102D2000F4D427E00128F7D0D9F80000E26900F4D4
:102D3000800191421CD1226A00F03F01914217D1DB
:102D400047F6C071626A0140B1EB821F10D1A26ADE
:102D50004FF0FF3300F4403103EB5202B1EB024F6E
:102D600006D194F82C1000F07060B0EB016F01D028
:102D70000120D1E70020CFE770B50D46040003D055
:102D800094F82C0010B107E0012070BD002084F8F9
:102D90002D00204600F011F8022084F82C00211D9F
:102DA0002068FDF78BFBD4E900022946FDF756FCAD
:102DB000012084F82C00002070BDFDF74FBF0000FB
:102DC00070B504007ED084492068884213D08349BE
:102DD000884210D0824988420DD0824988420AD068
:102DE0008149884207D08149884204D04FF4A071BC
:102DF0007FA002F08CF860684FF4827630B1B04268
:102E000004D040F241117AA002F081F8A06850B1DC
:102E1000B0F5806F07D0B0F5004F04D04FF4A1712A
:102E200073A002F074F8E068B0F5006F05D020B12F
:102E300040F243116EA002F06AF8A069B0F5007F7D
:102E400008D038B1B0F5802F04D04FF4A27168A03B
:102E500002F05DF8E06990B1082810D010280ED07B
:102E600018280CD020280AD0282808D0302806D0CE
:102E7000382804D040F245115DA002F048F8206ADD
:102E800030B1802804D04FF4A37159A002F03FF86C
:102E9000606A002548B3102806D040F2471154A0BC
:102EA00002F035F8606A00B3E069A0B1082812D0DA
:102EB000102810D018280ED020280CD028280AD08E
:102EC000302800E00FE006D0382804D040F2591135
:102ED00047A002F01CF825616561A56294F85100D5
:102EE000002830D034E0012070BD206930B10228C4
:102EF00004D04FF4A5713EA002F009F8606930B12A
:102F0000012804D040F24B1139A002F000F86068AB
:102F1000B04216D1E0690028DFD00828DDD01028A3
:102F2000DBD01828D9D02028D7D02828D5D03028D1
:102F3000D3D03828D1D040F24F112DA001F0E7FFB7
:102F4000CBE7E561C9E784F85050204600F06CF803
:102F5000022084F851002068016821F040010160DE
:102F6000A088218900F4827001F404410843A189FA
:102F700001F400610843217C01F002010843217D36
:102F800001F001010843218B01F400710843217F06
:102F900001F03801084394F8201001F08001084343
:102FA000218D01F40051084321680860A0690421C3
:102FB00001EA104094F8241001F010010843216840
:102FC00048602068C16921F40061C1616565012024
:102FD00084F85100002070BD0030014000380040EE
:102FE000003C0040003401400050014000540140CA
:102FF0002E2E2F447269766572732F53544D3332DF
:10300000463478785F48414C5F4472697665722F28
:103010005372632F73746D3332663478785F6861EE
:103020006C5F7370692E630010B586B0044614217E
:103030006846FDF7D4F913492068884220D1124828
:103040000021026842F480120260006800F48010DF
:1030500005900D481438026842F0200202600068B2
:1030600000F0200005904FF4607000900220CDE940
:1030700001010520CDE9031069460448FDF75CFE17
:1030800006B010BD00500140443802400014024018
:10309000704770472DE9F05F044600683A4E3B4F99
:1030A000DFF8EC80DFF8EC90DFF8ECA00D464FF095
:1030B000804BB04215D0584513D0B84211D040458E
:1030C0000FD048450DD04FEAB641884209D0334968
:1030D000884206D0504504D040F2B17130A001F0D2
:1030E00016FF286890B1102810D020280ED0302864
:1030F0000CD040280AD0502808D0602806D070286C
:1031000004D040F2B27126A001F001FF6868802867
:1031100005D020B140F2B37121A001F0F8FE94F87F
:103120003C0001282DD0012284F83C20022084F8A4
:103130003D00216848688B6820F0700C286840EAE0
:103140000C0048602068B0420FD058450DD0B842FE
:103150000BD0404509D0484507D0504505D01F4900
:10316000884202D01E49884204D1696823F0800356
:103170001943816084F83D20002084F83C00BDE8BC
:10318000F09F0220FBE70000000001400004004027
:1031900000080040000C0040000401400014004002
:1031A0002E2E2F447269766572732F53544D33322D
:1031B000463478785F48414C5F4472697665722F77
:1031C0005372632F73746D3332663478785F68613D
:1031D0006C5F74696D5F65782E630000004001408C
:1031E0000018004010B5040058D03F4920688842BC
:1031F0002BD0B0F1804F28D03C49884225D03C49A3
:10320000884222D03B4988421FD03B4988421CD08B
:103210003A49884219D03A49884216D039498842F9
:1032200013D03949884210D0384988420DD03849E6
:1032300088420AD03749884207D03749884204D0AB
:1032400040F2131135A001F062FEA06860B11028B1
:103250000AD0202808D0402806D0602804D04FF497
:103260008A712EA001F053FE206950B1B0F5807F25
:1032700007D0B0F5007F04D040F2151127A001F06F
:1032800046FEA06930B1802804D04FF48B7123A092
:1032900001F03DFE94F83D0010B107E0012010BDA3
:1032A000002084F83C00204600F054F8022084F806
:1032B0003D00211D206801F0D3FA012084F846006A
:1032C00084F83E0084F83F0084F8400084F8410010
:1032D00084F8420084F8430084F8440084F84500F0
:1032E00084F83D00002010BD0000014000040040B3
:1032F00000080040000C0040001000400014004096
:1033000000040140004001400044014000480140E9
:1033100000180040001C0040002000402E2E2F44CA
:103320007269766572732F53544D33324634787810
:103330005F48414C5F4472697665722F5372632F08
:1033400073746D3332663478785F68616C5F74696A
:103350006D2E630008B500680649884208D106480A
:10336000016841F001010160006800F00100009077
:1033700008BD000000000140443802402DE9F05F24
:10338000044600682F4D304E304FDFF8C480DFF820
:10339000C490DFF8C4A0DFF8C4B0A84226D0B0F1D2
:1033A000804F23D0B04221D0B8421FD040451DD01D
:1033B0004FEAB541884219D02949884216D048457C
:1033C00014D0504512D0274988420FD02649884250
:1033D0000CD058450AD02549884207D02449884254
:1033E00004D040F2CF1123A001F091FD94F83D00EC
:1033F000012802D00120BDE8F09F022084F83D00A2
:103400002068C16841F00101C1602068A8420ED067
:10341000B0F1804F0BD0B04209D0B84207D0404540
:1034200005D0484503D0504501D0584504D18168A6
:1034300001F00701062903D0016841F00101016094
:103440000020D8E7000001400004004000080040D0
:10345000000C004000040140004001400018004002
:10346000001400400044014000480140001C00409E
:10347000002000402E2E2F447269766572732F5300
:10348000544D3332463478785F48414C5F4472691A
:103490007665722F5372632F73746D33326634788E
:1034A000785F68616C5F74696D2E63002DE9F84F79
:1034B00005460020009095F83C000C46012841D0BC
:1034C000012085F83C00022085F83D0020684FF47B
:1034D000805B584516D0702814D0B0F5005F11D02D
:1034E00040280FD050280DD060280BD050B11028A4
:1034F00008D0202806D0302804D041F2B741D4A00B
:1035000001F005FD2868816821F0770121F47F41F1
:1035100081602068DC49DD4ADD4BDE4EDE4FDFF89E
:103520007CC3DFF87C834FF080494FF4004A502879
:103530007ED00FDC202804D007DC0028FBD0102828
:1035400077D161E10220BDE8F88F3028F9D040281A
:10355000F6D126E160286DD0702874D0584544D04B
:103560004FF400584045EBD1286888420ED04845BA
:103570000CD090420AD0984208D0B04206D0B8424F
:1035800004D041F2E241B2A001F0C1FCA06858B100
:10359000584509D0404507D0B0F5405F04D041F20E
:1035A000E541ABA001F0B3FC6068504509D040B1E3
:1035B000022806D00A2804D041F2E641A4A001F076
:1035C000A6FCE0680F2804D941F2E741A0A001F071
:1035D0009EFCD4E90121E368286801F0A5F9286878
:1035E000816841F48041816029E128688842FBD0EC
:1035F0004845F9D09042F7D09842F5D0B042F3D088
:10360000A8498842F0D0A8498842EDD0B842EBD012
:103610006045E9D0A5498842E6D0A5498842E3D073
:103620004045E1D0A3498842DED0A349884203E067
:103630004FE002E180E006E0D6D041F2C34184A031
:1036400001F065FCFBE02868884212D0484510D0A4
:1036500090420ED098420CD0B0420AD0B84208D066
:10366000604506D0404504D041F2CA4178A001F03F
:103670004EFCA06860B158450AD0B0F5005F07D095
:10368000B0F5405F04D041F2CD4171A001F03FFCA4
:103690006068504509D040B1022806D00A2804D0FD
:1036A00041F2CE416AA001F032FCE0680F2804D953
:1036B00041F2CF4166A001F02AFCD4E90121E36880
:1036C000286801F031F92968886840F0770088603F
:1036D000B5E02868884212D0484510D090420ED0FC
:1036E00098420CD0B0420AD0B84208D0604506D00B
:1036F000404504D041F2F64155A001F008FC606855
:10370000504509D040B1022806D00A2804D041F221
:10371000F9414FA001F0FBFBE0680F2804D941F20A
:10372000FA414BA001F0F3FBE2686168286801F000
:103730000DF95021286831E02868884212D04845A8
:1037400010D090420ED098420CD0B0420AD0B8426D
:1037500008D0604506D0404504D041F206513CA057
:1037600001F0D5FB6068504509D040B1022806D071
:103770000A2804D041F2095135A001F0C8FBE068E5
:103780000F2804D941F20A5131A001F0C0FBE268D0
:103790006168286801F0EBF86021286801F0CEF834
:1037A0004DE02868884212D0484510D090420ED093
:1037B00098420CD0B0420AD0B84208D0604506D03A
:1037C000404504D041F2165121A001F0A0FB6068F1
:1037D000504509D040B1022806D00A2804D041F251
:1037E00019511BA001F093FBE0680F2804D941F2A6
:1037F0001A5117A001F08BFBE2686168286801F09C
:10380000A5F840212868C9E72868884212D04845B1
:1038100010D090420ED098420CD0B0420AD0B8429C
:1038200008D0604506D0404504D041F2295108A097
:1038300001F06DFB21682868B0E7012000900120AD
:1038400085F83D00002085F83C0000987BE60000EC
:103850002E2E2F447269766572732F53544D333276
:10386000463478785F48414C5F4472697665722FC0
:103870005372632F73746D3332663478785F686186
:103880006C5F74696D2E630000000140000400400D
:1038900000080040000C00400004014000400140CE
:1038A0000018004000100040001400400044014097
:1038B00000480140001C004000200040704770B5E7
:1038C0000446006801694FF00005C943890715D413
:1038D000C168C943890711D4E91E0161012020771D
:1038E000206880698007204602D0FFF7E7FF04E0E8
:1038F00000F098F8204600F096F8257720680169D6
:10390000C943490717D4C168C943490713D46FF0A5
:1039100004010161022020772068806910F4407F53
:10392000204602D0FFF7CAFF04E000F07BF82046F3
:1039300000F079F8257720680169C943090716D492
:10394000C168C943090712D46FF00801016104205E
:1039500020772068C0698007204602D0FFF7AEFFBD
:1039600004E000F05FF8204600F05DF8257720685D
:103970000169C943C90617D4C168C943C90613D42C
:103980006FF010010161082020772068C06910F4F1
:10399000407F204602D0FFF791FF04E000F042F89C
:1039A000204600F040F8257720680169C943C9071F
:1039B00008D1C168C943C90704D1891E01612046E5
:1039C00000F032F820680169C943090609D4C168CA
:1039D000C943090605D46FF0800101612046FFF755
:1039E00057FB20680169C943490609D4C168C94326
:1039F000490605D46FF040010161204600F01EF831
:103A000020680169C94389060BD4C168C943890686
:103A100007D46FF0200101612046BDE87040FFF738
:103A200038BB70BD7047704700680349884201D1B8
:103A3000FDF710BF70470000001000407047000005
:103A400070B5040023D0A0693E4900283E4A3F4B90
:103A50003F4D20681DD088420CD090420AD0984239
:103A600008D0A84206D040F273113AA001F04FFAF4
:103A7000A06938B3A069B0F5807F23D0B0F5007F8E
:103A800020D0B0F5407F1DD04FF4BA7117E001206F
:103A900070BD884216D0904214D0984212D03C4952
:103AA00088420FD03B4988420CD0A8420AD03A49FC
:103AB000884207D03949884204D04FF4BC7125A010
:103AC00001F025FAA06838B1B0F5805F04D04FF45A
:103AD000BD7120A001F01BFAE06938B1B0F5004FCC
:103AE00004D040F27B111BA001F011FA94F83D00C4
:103AF000002520B984F83C50204600F051F82420DD
:103B000084F83D002068C16821F40051C16020465E
:103B100000F040FF2068016921F4904101612068B4
:103B2000416921F02A0141612068C16841F40051D6
:103B3000C1602564202084F83D0084F83E00002008
:103B400070BD0000001001400044004000480040EB
:103B5000001401402E2E2F447269766572732F5324
:103B6000544D3332463478785F48414C5F44726933
:103B70007665722F5372632F73746D3332663478A7
:103B8000785F68616C5F756172742E63000000007D
:103B9000004C00400050004000780040007C004095
:103BA00010B586B0044614216846FCF718FC144989
:103BB0002068884221D113480021026842F0100297
:103BC0000260006800F0100005900E48143802688A
:103BD00042F001020260006800F0010005904FF41D
:103BE000C06000900220CDE901010320039007206E
:103BF000049069460448FDF79FF806B010BD000028
:103C00000010014044380240000002402DE9F04716
:103C1000074600680D4600EB4116D6F8080501EB93
:103C20004103420703EBC5014FF006004FF00408C3
:103C30004FF0050A07EB810401D541463CE0D6F878
:103C40000815C90507D54FF48070C6F80805072088
:103C500084F861001CE0D6F80815890603D52020F9
:103C6000C6F8080518E0D6F808150A074FF008014D
:103C700004D5C6F8081584F861A009E0D6F808252F
:103C8000520514D54FF48060C6F8080584F8611019
:103C90002946386800F0F0FFD6F8080580050ED5F3
:103CA0002946386800F0E8FF4FF40070A0E0D6F82D
:103CB00008150906F0D58021C6F80815C8E7D6F81A
:103CC00008054FF00001C0074FF010094FF0010246
:103CD0003BD0386930B1A06CD6F81035C3F312036D
:103CE000C01A206584F86120E165C6F8082594F8BB
:103CF0003F0030B1022804D0032809D0012807D0A2
:103D000012E02946386800F0B7FFC6F808950BE0C6
:103D1000D6F8000540F00050C6F8000584F8602091
:103D200029463846FDF70AFA3869012806D1B4F861
:103D30004010A06CB0FBF1F0C00704D014F8540F91
:103D400080F001002070BDE8F087D6F808058007F4
:103D500035D594F86100022301280AD005280BD03C
:103D600006280CD008280AD003280FD0072818D01E
:103D70001CE084F8602019E084F860A016E0E06D93
:103D8000401CE065022801D9E1650DE084F860304F
:103D9000D6F8000520F0804040F00040C6F800054D
:103DA00004E0E06D401CE06584F86080C6F80835EA
:103DB00094F8602029463846FDF7C0F9C3E7D6F8E5
:103DC0000805C006BFD594F83F00032803D020B1F2
:103DD000022802D00BE0E16505E0E165386930B901
:103DE000032084F861002946386800F045FF484602
:103DF000C6F80805A7E72DE9F047026802EB411471
:103E0000D4F8082501EB4103550703EBC1034FF03C
:103E100004024FF0060A00EB830304D5C4F808251A
:103E200083F861A051E0D4F808554FF00007AD06C3
:103E30004FF0020C0BD52022C4F8082593F83D2042
:103E4000012A33D183F83D7083F860C03DE0D4F897
:103E50000855AD0504D54FF40072C4F8082534E0C8
:103E6000D4F808554FF001065FEAC5784FF04005D9
:103E70000DD0DF65D4F80825520603D583F83D60E0
:103E8000C4F80855C4F8086583F861601DE0D4F8EB
:103E900008855FEA48680BD583F8612083F83D60A8
:103EA000DF65006800F0E8FEC4F80855BDE8F0875B
:103EB000D4F808554FF008095FEA05784FF005057A
:103EC00008D5C4F8089583F861500068BDE8F0474C
:103ED00000F0D2BED4F808855FEAC86810D5032286
:103EE000DF6583F8612093F83D2022B993F83C20E8
:103EF0000AB983F83D60006800F0BEFE10201AE0A9
:103F0000D4F808855FEA086818D5056955B1DD6DF4
:103F10006D1CDD65022D0BD9DF6583F86020FDF790
:103F20000DF907E083F861A0006800F0A5FE01E04C
:103F300083F860C08020C4F80805B7E7D4F8088586
:103F40005FEA485807D583F86190006800F094FE56
:103F50004FF48060EFE7D4F808855FEA8878A5D54C
:103F600093F86180B8F1010F0FD0B8F1030F30D092
:103F7000B8F1040F2DD0B8F1050F2DD0B8F1060F10
:103F80002DD0B8F1080F2AD03CE083F8606093F898
:103F90003F20022A01D0032A34D102692AB993F8BA
:103FA000552082F0010283F855200269012A29D1A7
:103FB000DA6C3AB3B3F840502A44521EB2FBF5F221
:103FC000D2071FD093F8552082F0010283F85520C4
:103FD00018E083F860C015E083F8605012E0DD6DF2
:103FE0006D1CDD65022D03D9DF6583F8602009E0D3
:103FF00083F860C0D4F8002522F0804242F00042ED
:10400000C4F80025C4F808C593F86020FDF796F8B9
:104010004CE77CB504680546D4F840040190D4F818
:10402000400420F02E0000900198800709D50198E7
:10403000C00702D02846FDF77FF8009840F0020044
:1040400000900198000724D5009840F008000090E7
:10405000019840071AD5A869022803D0E86801280A
:104060000CD00FE00198C0F341400228286803D02B
:10407000012100F0CFFE05E00221FAE74EF66020B4
:10408000C4F804042846FDF79EF902E02846FDF72F
:1040900099F901988006009802D540F02000009020
:1040A000C4F840047CBD2DE9F04102460068064694
:1040B000016AC1F3434301F00F07C1F30A15022B54
:1040C00031D1002D2FD007EB470101EBC70102EBE7
:1040D0008104616C002926D0226DE36C2A449A4247
:1040E00023D82A4600F0B5FE606C28446064206D39
:1040F0002844206506EB4710D0F81015B4F840208E
:10410000C1F3C941AA420ED100290CD0D0F8001544
:1041100021F0804141F00041C0F8001514F8540F1F
:1041200080F001002070BDE8F081042084F8600078
:10413000F9E7FEE70148FDF7AABC0000E80000200F
:10414000F0B503688C88DD68C5F30B452C44250465
:10415000882404EBC2141E5906F470461E510368ED
:104160000F68DE68C6F30B46761C3E442E431E5194
:1041700004688B89E568C5F30A052B441D048C236C
:1041800003EBC213E65806F47046E65004688F68E5
:10419000E668C6F30A06761C3E442E43E650942396
:1041A000046803EBC213E55825F00705E5500568E0
:1041B0000C69EC5091F831300C7E1F0226069C24CD
:1041C000056804EBC21491F8323055F804C04FF082
:1041D000000C45F804C091F8305046EA03433D43D3
:1041E0001D4303681D519823046803EBC213E5586F
:1041F00025F0FF05E55005684C69EC50A0230468E4
:1042000003EBC213E55840F20776B543E550D1E918
:1042100007452C430568EC50AC23046803EBC2133C
:10422000E55844F803C005684C6AEC500B698BB341
:10423000012B32D0042B32D0022B30D0032B2ED0C6
:10424000072B2CD00123B024056804EBC2142E598F
:1042500006F0E0262E51D1E90065AD1B0E8D5D43C1
:104260005E43ED1C45EA064305682B51B423046800
:1042700003EBC213E5586FF30A05E5500468C96AF9
:10428000E1500068842101EBC211425842F0010262
:104290004250F0BDFFE70423D5E70323D3E7022311
:1042A000D1E70000074910B5054808600846FCF74B
:1042B0009DFA002803D0BDE81040FCF7FCB810BD03
:1042C00000300240000000200E4810B50C4901608B
:1042D000002141608160C1608162C162016341630C
:1042E000FCF710FC08B1FCF7E6F801210548FCF7E3
:1042F000CBFA002803D0BDE81040FCF7DCB810BDB5
:1043000000B002402000002000B587B01C216846A4
:10431000FCF765F81548144900F1080C016001210B
:1043200041600021042210238CE80E0040234361E9
:104330004FF4C073C0E906315302C0E90831D1021D
:104340008162022007218DE8070003910321CDE956
:104350000410069069460548FEF70EFD002801D0BE
:10436000FCF7A9F807B000BD400100A060000020E4
:104370002DE9F04F87B014216846FCF730F87248F9
:104380000024016841F010010160016801F0100192
:104390000591016841F004010160016801F0040128
:1043A0000591016841F020010160016801F02001E0
:1043B0000591016841F080010160016801F0800110
:1043C0000591016841F001010160016801F00101FE
:1043D0000591016841F002010160016801F00201EC
:1043E0000591016841F040010160016801F0400160
:1043F0000591016841F0080101600068DFF84CB1E7
:1044000000F008000590002216215846FCF758FEDF
:10441000002280214E48FCF753FE4FF44059002201
:1044200049464C48FCF74CFE4FF4C04A0022514626
:104430004948FCF745FE7C200325CDE90005694687
:1044400002944648FCF778FC43F60810CDE90005D5
:10445000694602945846FCF76FFC4020CDE9000500
:10446000694602943E48FCF767FC1620009001263E
:10447000CDE90164694658460394FCF75DFC48F2B7
:1044800007004FF49017CDE90007694602943048C1
:10449000FCF752FC4FF02008CDF80080CDE9015424
:1044A00069462B48FCF748FC80200090CDE9016468
:1044B000694627480394FCF73FFCCDF80080CDE91E
:1044C000017469465846FCF737FC0420CDE9000426
:1044D000244F694638460294FCF72EFCF002CDE9E1
:1044E000000469461B480294FCF726FCCDF80090B6
:1044F000CDE90164694617480394FCF71DFC4FF4AD
:104500000370CDE90005694602941348FCF714FCDA
:10451000B420CDE90005694602940E48FCF70CFC76
:10452000CDF800A0CDE9016469460B480394FCF77F
:1045300003FC9820CDE90005694602943846FCF753
:10454000FBFB07B0BDE8F08F3038024000080240A6
:1045500000000240000C024000180240001002401F
:104560000014024000040240144810B512490160D2
:104570001349416000214FF480428160C0E9031279
:1045800041618161C1610162FCF7D8FF08B1FBF7AD
:1045900092FF00210948FCF719FF08B1FBF78BFFD8
:1045A00000210648FCF770FF002803D0BDE810404A
:1045B000FBF781BF10BD0000005C004094000020AC
:1045C000A086010010B58EB034216846FBF707FFC6
:1045D000274826490024C0E9001484600921C460EA
:1045E000C0E90441012181611D21C16103210162F2
:1045F00040F20D11416240F24311816240F2171105
:10460000C16240F24711016380F8344080F83540C0
:1046100080F83640FDF7A0FA08B1FBF74CFFF02018
:10462000CDE900404FF4A07102220294CDE90312BB
:10463000FF22CDE905244FF4C062079207220892B9
:104640004FF05042CDE90A018DF8304009928DF8C3
:1046500031408DF83240002269460548FDF756F991
:10466000002801D0FBF727FF0EB010BD0068014005
:10467000E8000020104810B50E4901604FF4827127
:10468000416000218160C1604FF400720161C0E9A6
:1046900005121822C0E90721416281620A21C16224
:1046A000FEF78EFB002803D0BDE81040FBF703BFE8
:1046B00010BD0000005001409001002010B586B0F0
:1046C000002417480094019402940394049413491D
:1046D0000594C0E900144FF6FF71C0E9024104617E
:1046E00044618461FEF77EFD08B1FBF7E4FE4FF400
:1046F0008050009069460A48FEF7D8FE08B1FBF7E3
:10470000DAFE049404A906480594FEF7C3FC0028C9
:1047100001D0FBF7D0FE06B010BD00000000014044
:10472000E80100200C4810B50A4901604FF4E1315E
:104730004160002181600C22C160C0E904128161E6
:10474000C161FFF77DF9002803D0BDE81040FBF7F9
:10475000B2BE10BD00100140300200200D4810B55F
:104760000B4901600C2181600121C16000210222FE
:104770000161C0E906210162C1624163FCF77CFD71
:10478000002803D0BDE81040FBF795BE10BD000027
:104790000000044074020020FEE7FEE70148FCF739
:1047A000CEBC0000740200207047704770470000C4
:1047B00030B593B030216846FBF711FE14210CA8E8
:1047C000FBF70DFE1D480025016841F08051016096
:1047D000006800F0805011901948016821F44041B0
:1047E00041F4804101600068022400F440401190CF
:1047F00001200090000401908001CDE906400420D2
:1048000008904820CDE9090403200B906846FEF784
:104810005FF808B172B6FEE70CA90F2081E83100FD
:104820004FF48050CDE90F0502210CA8FDF7AAFE38
:10483000002801D072B6FEE713B030BD4038024008
:10484000007000400248016841F470010160704747
:1048500088ED00E00148FFF732B80000780500203D
:10486000F0B50268254C264D264E274F274B4FF0BA
:10487000804CA04209D0604507D0A84205D0B04284
:1048800003D0B84201D0984204D122F0700E4A6899
:1048900042EA0E02A0421BD0604519D0A84217D0B0
:1048A000B04215D0B84213D0984211D0184DA8424A
:1048B0000ED0184DA8420BD0174DA84208D0174D66
:1048C000A84205D0164DA84202D0164DA84203D1E9
:1048D00022F44075CA682A434D6922F080022A43B7
:1048E00002608A68C2620A688262A04201D098426D
:1048F00001D10969016301214161F0BD000001405E
:104900000004004000080040000C0040000401408A
:1049100000400140004401400048014000180040B0
:10492000001C00400020004010B5846842EA0322C9
:1049300024F47F440A432243826010BD826822F03F
:1049400070020A4342F007018160704710B5036AA4
:10495000046A24F001040462846924F0F00444EA47
:10496000021423F00A020A438461026210BD10B5EA
:10497000036A23F0100303628369046A23F470431B
:1049800043EA023224F0A00343EA0111826101628A
:1049900010BD000070B5044640685449884204D9EF
:1049A00040F6616152A000F0B2FAE06838B1B0F5AB
:1049B000005F04D040F662614DA000F0A8FA2069C3
:1049C00050B1B0F5806F07D0B0F5C06F04D040F69D
:1049D000636147A000F09BFA60694FF6F3710842EB
:1049E00000D120B940F6646141A000F090FA20683F
:1049F0000169E26821F44051114301612169A06815
:104A0000E26908436169114322680843D16849F2A9
:104A10000C6399430143D16020684169A26921F484
:104A200040711143416141492068884202D04049A8
:104A3000884202D1FDF70CFF01E0FDF7F9FEE269C3
:104A40000023192164253226B2F5004F626828D070
:104A5000A0FB0101930F9200FBF718FC0146B0FB8D
:104A6000F5F06FF01802504301EB800006EB0010E8
:104A7000B0FBF5F000F0F002B1FBF5F002EB001234
:104A8000B1FBF5F06FF01803584301EB800006EB23
:104A90000010B0FBF5F000F00F00216810448860B2
:104AA00070BDA0FB010192185B41FBF7EFFB0146D3
:104AB000B0FBF5F00201B1FBF5F06FF018035843BD
:104AC00001EB800006EBC000B0FBF5F000F0F80051
:104AD00002EB4002B1FBF5F0584301EB800006EB1E
:104AE000C000B0FBF5F000F00700D6E7A037A0004B
:104AF0002E2E2F447269766572732F53544D3332C4
:104B0000463478785F48414C5F4472697665722F0D
:104B10005372632F73746D3332663478785F6861D3
:104B20006C5F756172742E6300000000001001401C
:104B30000014014070B5044606990A9E049D0D9824
:104B4000012916D0E06840F04000E060204600F007
:104B50002BF8A16B1EB321F48031A163012D07D185
:104B6000A16841F00601A160A16841F02001A160A7
:104B700070BDA16B21F48031A163E168094A114045
:104B8000E160E16821F44011E160012803D1E068AF
:104B900040F48010E060204600F006F8DEE741F4C3
:104BA0008031DAE7BFFFBDFF08B500220D49009252
:104BB000009B5B1C00938B420CD80369002BF7DA37
:104BC0000092026942F001020261009A521C0092B6
:104BD0008A4201D9032008BD0269D207F5D100201D
:104BE00008BD0000400D0300816821F001018160D3
:104BF0000020704708B500220C490092009B5B1C06
:104C000000938B420AD80369002BF7DA0092102236
:104C10000261009A521C00928A4201D9032008BD09
:104C20000269D206F5D4002008BD0000400D030043
:104C300018B500230D4A0093009C641C0094944214
:104C40000CD80469002CF7DA0093202343EA811181
:104C500001610099491C0091914201D9032018BDBE
:104C600001698906F5D4002018BD0000400D03003D
:104C7000406900F00100704718B5002200EB4111B7
:104C80000092D1F80025D1F80035C2F38142846842
:104C9000DB0FA40600D51BB34FF47A736AB1022A66
:104CA0000BD0D1F8002542F08042C1F80025D0F8A1
:104CB000100410F47F0F2BD00CE0D1F8002542F047
:104CC0008042C1F800258268920609D4C06A10F4B7
:104CD0007F0F07D0D1F8000540F00040C1F8000573
:104CE000002018BDD1F8000520F00040C1F80005F3
:104CF000D1F8000540F00040C1F800050098401CC4
:104D000000909842ECD8D1F800050028F6DBE7E7E0
:104D1000D1F8000520F00040C1F80005D1F80005E9
:104D200040F00040C1F800050098401C00909842F7
:104D3000D6D8D1F800050028F6DBD1E7D0F8140466
:104D400080B270472DE9F0410025DDF81880174644
:104D500004462E46C0F8005E806B40F40010A0634D
:104D6000A06B20F40020A063A06B20F48020A0633F
:104D7000E06BC00501D5012B04D0D4F8000420F06D
:104D8000040103E0D4F8000440F004012046C4F814
:104D900000141021FFF74CFF00B101252046FFF75A
:104DA00029FF00B101250020411E06E004EB40125E
:104DB000C2F80815C2F80C65401C8742F6D8A661F7
:104DC0006161E06BC00506D54FF4007060620C486D
:104DD000A0620C4804E0802060620B48A0620B488F
:104DE000C4F80001B8F1000F03D1A06940F0100031
:104DF000A061A06906490843A0612846BDE8F0818A
:104E0000000200010003E00080006000E0004000BC
:104E1000080020A3D0F8002422F00302C0F80024E8
:104E2000D0F8002401F003031A43C0F8002401293C
:104E300002D0022903D006E04BF6803101E041F2B6
:104E40007071C0F8041400207047416980690840FF
:104E5000704730B503460846940802F0030100226B
:104E600003F5805303E01D6840F8045B521CA24226
:104E7000F9D300290BD01C680022D50024FA05F3D1
:104E8000491E521C090400F8013B090CF5D130BD44
:104E900070B50446C068002520F0C040E0600129DC
:104EA00001D079B120E0E06840F00050E0600120DE
:104EB000FBF7C2FE60696D1C10F0010F10D1322D9E
:104EC000F5D30DE0E06840F08040E0600120FBF7A2
:104ED000B3FE60696D1C10F0010F01D0322DF5D3C7
:104EE000322D01D0002070BD012070BDFEE7090702
:104EF000090E002804DB00F1E02080F80014704760
:104F000000F00F0000F1E02080F8141D704770479A
:104F1000FCF7A8FCFFF74CFCFFF72AFAFFF7C2F9F1
:104F2000FFF7D2F9FFF7F0F9FFF71EFBFFF74AFB97
:104F3000FFF7A0FBFFF7C2FBFFF7F4FBFFF70EFC48
:104F4000064D4FF480444FF4FA7621462846FCF78C
:104F500087F83046FBF770FEF7E7000000180240C4
:104F60004FF04070E1EE100A7047000000000000B2
:104F70000000010203040607080900000000010206
:104F800003040000A44F00080000002020000000DF
:104F9000E8010008C44F000820000020000C0000B9
:104FA00004020008000000000000000000000000F3
:104FB00000000000010000001000000000000000E0
:044FC0000024F400D5
:04000005080001AD41
:00000001FF
